:100000000C94A20C0D94A3740D9478740D944D74FB
:100010000D9422740D94F7730D94CC730D94A17309
:100020000D9476730C94D30C0C94D30C0C94D30CC9
:100030000C94D30C0C94D30C0C94D30C0D942C3343
:100040000C94D30C0C94226B0C9406690C94A8CDE0
:100050000C94D30C0C94D30C0C94D30C0D9400730F
:100060000C94D30C0D9419780D94D9770C94D30C6F
:100070000C94D30C0C94D30C0C94D30C0C94D30C84
:100080000D94835F0D94F35E0D94635E0C94D30C1A
:100090000C94D30C0C94D30C0C94D30C0C94D30C64
:1000A0000C94D30C0C94D30C0D94DB590D94D35DAC
:1000B0000D94DD580C94D30C0C94D30C0D94D55C9A
:1000C0000D94D75B0D94D95A0C94D30C0C94D30C8B
:1000D0000C94D30C0C94D30C0D94A3770D946377EC
:1000E0000C94D30C0C941D860C94937F0C942B18B9
:1000F0000C94128F0C940F7E0C94FEC60D949E14DB
:100100000C941D8C0D944D0E0C9462950C943F8CA8
:100110000C94538E0C94A78D0D94E4120C947221C0
:100120000C941C840D94D4230C94F54A0C94A5C013
:100130000C948AC50C94E87A0D942B120C948AD2F4
:100140000C94D98A0C947A8B0C94718D0C941D8E1E
:100150000C94B5F70C942C8E0C9479860C94522642
:100160000C94178C0D94B9140C94B0180C94463A56
:100170000C94F6850C9442CC0C94E1AF0C944CB7E3
:100180000C94C2120C94348B0C944C8D0D9486906C
:100190000C943F7E0C94537D0C9410F20C94001739
:1001A0000C94368C0D9457290C94308C0C949F8EA3
:1001B0000C94378B0C94748D0C94148E0C9477855E
:1001C0000D94E6240C94EFD50D9400120C946F9DC1
:1001D0000C94CEC80D94B5030C94E48E0D94BC0D14
:1001E0000D9495120D9464570C94360D0C944D8E0D
:1001F0000C9414B10D94AE6C0C9445C90C9482AE61
:100200000D9482130C94E58B0C9495140C9475D278
:100210000D94516C0C94ED750D945F080D94BC66B3
:100220000D94433D0C940CB00C94944F0C94A50E7B
:100230000C9473CC0C94F08D0D9407920C94D17A9D
:100240000C94A81A0D9473020C948C130C9409CC82
:100250000C9461FC0C944FF60C94BB4E0C94AD8B3B
:100260000C94ED9A0C94188F0C9470F10C94F1AAE4
:100270000C940D8C0D9472730C94CDAB0D942025C1
:100280000C9486160C944E7E0D9439060C948C8D2D
:100290000C947F8C0D9428250C94AA810D94342401
:1002A0000C9459D30D9468910C94E58A0D948E1199
:1002B0000C94408B0C9425840C948FCA0C94F18A76
:1002C0000D9470570C94868B0C9475D50D94FB741B
:1002D0000C94778B0D949D0D0C94BBAB0D94150372
:1002E0000C94EA850D94F3740D9400240C944BA6A1
:1002F0000C9426120C94E48D0C94F68E0D94D3017C
:100300000C945A7E0C9458CD0C94288B0D943F2954
:100310000C94408D0C94468D0D941A250C94548C9D
:100320000C942E8B0D94DB6B0D94EC230D94101319
:100330000D94F44B0C9470950C94FF8E0C94C38A1E
:100340000D94CF6B0C94DAB00D94846C0C94C81B94
:100350000D94EF6B0C946B8B0C946E8B0C94A8EE3D
:100360000C94C8FB0C94D2A80C94C08A0D94591319
:100370000C94C98A0C94A8860C940A130C945E15EC
:100380000C943B8E0C943EC10C946B8D0C9469D5EF
:100390000C94358E0C945E8C0C94378D0D946857AC
:1003A0000C941F8B0C9480AC0C94C68A0C949A4FBE
:1003B0000D941F660C94648E0C94A8870C94D37DC6
:1003C0000C94167B0C94037E0D944B130D94AC0D82
:1003D0000D940E250C940E8E0C9455CB0C94677CCA
:1003E0000D9455290C94348D0C94D2200C94D0503B
:1003F0000C941C8B0C94268F0C94F21B0C94CD86C1
:100400000C94068B0D9447290D9458570C94C7F8FB
:100410000D94396C0D94CA120D94C33C0C94A2C86F
:100420000C94E77C0C947D8B0C942C8F0D941524EC
:100430000C94AD7F0D94F2240C94688C0C948E2552
:100440000D9468730C94D7850D9407660C947C8E7C
:100450000C94EF270D946C570C94628D0D94310120
:100460000C948F8B0D940B0E0C94F3A60D945B3EA5
:100470000C94E4190C94358F0D946A730D94A84D67
:100480000C9476500C949E8D0C94B08B0D94713C12
:100490000C94E18D0C940C260C94BC7A0D94452997
:1004A0000C94A18B0C94CC460D942B660D94C9141E
:1004B0000D941A0D0C941A8C0D946C0D0D94392911
:1004C0000C94B00D0D9412250C94F6830C94157EAB
:1004D0000C9461970C94DE8D0D94926C0D94E756FC
:1004E0000C94F78A0D943B240C94338C0C94098F54
:1004F0000C946E8D0D94FE240C949B8D0C94153EE3
:100500000C94B3500C949EAC0C9437380C948C8B98
:100510000C94AB870C949F8A0C944F220C9492AB52
:100520000C949CF50C947A8D0C94628B0C940C8F2B
:100530000D94DA240C942F8F0C9462930C94294E12
:100540000C94988B0C94990F0C94958B0C944B8273
:100550000D946E570C94418F0C941E8F0C94FCFCE0
:100560000C944A8E0C94207F0D947A220C94518C1A
:100570000C949B8B0C9484C60D9472570C942A187F
:100580000C94167F0C9475A50C94EA8E0D94062598
:100590000C94BA8A0D94C43E0C94748B0C94F08520
:1005A0000C94008B0C94D1D20C940B8E0C942C1FB9
:1005B0000C94A1850D946B3E0C941B830C94821CAF
:1005C0000C94298D0C9402F70C94477E0C94369C65
:1005D0000C942B4A0D948C0D0C94268E0C94FF8D4C
:1005E0000C94007C0C94D18B0C94EC9A0D9437668F
:1005F0000C94F98D0C94D78B0C94DB940C94168B83
:100600000D94EE240D94CF4C0C947A7C0C94758E42
:100610000D94D8140C945F8D0D94E0230C9453C763
:100620000D94C8120D94296C0C94917E0D94A66CB7
:100630000C94577E0C941FC50C942F8E0C94A97C9F
:100640000C94A48B0C94D2C70C9444B20D948E6776
:100650000D9410080C94538D0C94D6A90C94E28A36
:100660000D946A570C945DA70C94ED8D0C94118E2B
:100670000C943D8D0C94258B0D9473070D942724B9
:100680000D94C2070D94EF740D94A7110C946D8610
:100690000C94777C0D9453120C94B8820C94A04F58
:1006A0000C94238D0D94416C0C94478E0D94492924
:1006B0000C94AEF60C946EBA0D94DF140C94DC8A94
:1006C0000D9477210C94E28B0D941E250C942DFB38
:1006D0000D945A570C94498B0D940D660D94161574
:1006E0000D946D110D942B0D0C948C1D0C9414F81D
:1006F0000C94C58B0D94B06B0C9430D40C9487166D
:100700000D94F6240C942F950C94A18D0C94494EC5
:100710000C94F98E0C94418E0D94C6900C94FDC9E6
:100720000D944F220C94F9CF0C94DC860C943FA3CB
:100730000C94914F0C94C88D0C94C28B0C946786CA
:100740000C9456EF0D945D730C9439300C94CE8B51
:100750000C94B4A40C941B8F0C94200F0C9461F790
:100760000C945F7D0D94D7120C9479420D948121E5
:100770000D9431660C947D8D0C94658B0D940F90C7
:100780000C94578C0D943B290C9479810C9410F1A6
:100790000D94DA230D9441290C94198B0C94BF8D80
:1007A0000C944E8C0C9491CB0D9480140C94B87BCB
:1007B0000D94F2650D9462570C94D3A80C94C88BD9
:1007C0000D947D3E0C94BF8B0C94688B0D94D606D3
:1007D0000C94808B0C940EC80C941A8E0D94DD3CF6
:1007E0000C9416970C94FBF50D9440150C94FB8B10
:1007F0000D94EA240C94178E0C94658C0C94A40E22
:100800000C94D48B0C94FC8D0D9460570D940225A0
:100810000D9443290D942D240C948E190C94F9F900
:100820000D94C4110C94E88A0C94FDFF0C94EA8D8D
:100830000C949E8B0D94E36B0D945C0E0C94B38D15
:100840000C94398C0D94DE240C94808D0D94A73C6F
:100850000D9457040D94520D0C94958D0C9405171E
:100860000C94BE980D94A10E0D943D290D94601228
:100870000D94DE110C9496D60D94284D0D94CF0E48
:100880000C94B6AF0C94B98B0C943E8E0C94428CA5
:100890000C945C8E0C94747C0C94038B0D944366C6
:1008A0000C94DF8A0C94928B0D94D1110C94328F9E
:1008B0000C941CC60C94F4A60C94828C0D94F365D5
:1008C0000C94CF8A0D945C570C94C2430D94880607
:1008D0000D949F670C945A8C0D94126C0C94E4EE5A
:1008E0000C94F68D0C943A8B0C948F8D0C94C086DE
:1008F0000C949D7C0C943A8D0C94028E0C94228B5B
:100900000C94988D0C94A3800C94A2A00D948D3C13
:100910000C94CD250C9473860C94268D0D9424256F
:100920000C94D68A0C94F38D0D944C110D94F9749B
:100930000D94B9790C9495AB0C94F2830D949A6C48
:100940000C9494FA0C940F8F0D94F2230D94906BE9
:100950000C94AFC40D9425070C94EBC50C94FC8E3D
:100960000C945E850C94B08D0C9457850C947DA1ED
:100970000C948E8E0C94AA920C943C8C0C942B8B21
:100980000C94468B0C94BC8D0C9495FD0C945C8D52
:100990000D94B3670D94C16B0D944B3E0D942A3C9E
:1009A0000C94438D0C94F48B0D94C86C0C94488C6F
:1009B0000D94894C0C9494140C94498D0C94318BA7
:1009C0000D94F53E0C949D4F0C94DD850D94C1144F
:1009D0000D94496C0C9494850C94A4C90C949DB00E
:1009E0000D944F3C0D940A250D9439140C94628C8F
:1009F0000C94508E0C9430FE0C94ED8E0D940E15CC
:100A00000C94A78B0C94208E0C94928D0C9411ACAA
:100A10000C94868D0C94B8AB0D947C0E0C94A48D24
:100A20000C9425120D9413660C9421CB0C94388EE3
:100A30000C94EB7D0D947B0D0C947C870D947B14B2
:100A40000D9425660C94B97D0C94C27B0C94547E55
:100A50000D94ED650C94838B0C94718B0C9455263E
:100A60000C94158F0C94298F0C94CDCB0D944224AB
:100A70000D9470730D94BA6C0D9453290D948521C7
:100A80000C94238E0D94EA120D94B7120D94604CC1
:100A90000D9498000D94F5110C94BD8A0D94B31427
:100AA0000C94EAA40C94388F0D9416250C949D1E7A
:100AB0000C94D1850C94F48A0C945C100C94798C71
:100AC0000C94B5F10D94F1740C9479C90D9497912F
:100AD0000C94B98D0C94688D0D94F5740C9415914B
:100AE0000C94898D0C94F08E0C94517E0C94F37CB4
:100AF0000D94EF4B0C94561E0D944D290C9464FFED
:100B00000C94DD8B0D94E2240C9417D10C94699510
:100B10000D94F9230D9448120C945DBD0C94AD8D89
:100B20000D946D120D941B240C947F860C94091364
:100B30000D9413220D94DD120C948D130C9468F80F
:100B40000C94008A0C94B68B0D9452670C94268CEE
:100B50000D940E240C94568D0D9499050C94CB8B0A
:100B60000C94C28E0D940D120D943D660D945E573B
:100B70000D946E730C941BB50C94CC8A0D94B0122A
:100B80000D94FB650D9466570C9461F90C94458C9B
:100B90000D946C730C944E8F0D9400150C94E78D8E
:100BA0000C94F5A60C94B68D0C94210F0D94BB6695
:100BB0000C944B8C0D94736C0D9474730C94C485CD
:100BC0000C940A3B0D9474570C94438B0D944F294D
:100BD0000C94B38B0C94228F0C9442F00D94492406
:100BE0000C942DAA0D944B290D9425910C94DA7A2E
:100BF0000C94088E0C9430BC0C94DDA00C94F38EF5
:100C00000C94657C0C94838D0C94C28D0C94EE8AAC
:100C10000D9407150D9486210C944BC50D94F70483
:100C20000D9451290D9452130C940DCD0C94898B75
:100C30000D94D0120C9450C60D94316C0C94C58D4B
:100C40000C94598D0D94FA240C948B8C0C94448E36
:100C50000C94568E0D9461130C94B48A0D946721F4
:100C60000D94F7740C9420150C94E8D10C940B138C
:100C70000C94F77D0C94508D0C9448F50C94B78A25
:100C80000C94298E0C94D28A0D94F7650C94058EE1
:100C90000C94FA8A0C94BC8B0C94328E0D940166E1
:100CA0000D946B650C94D50C0C94DF7D0D94212470
:100CB0000C947D7C0C94A8180C94B3850C94974FDD
:100CC0000D947C210C940C8B0D94DD0D0C9498D517
:100CD0000D94EC830D94B3610C947C8C0C945F8B1D
:100CE0000C9450450D94C1670C94778D0D94E33EA0
:100CF0000C94068F0C94FD8A0C94FA9B0C94C9FEFC
:100D00000C94A6850D94E6230C9487200C942F8DCB
:100D10000D94D0140C94C7100D9419660C945211B4
:100D20000C943D8B0D9449660D94E9110D940724A4
:100D30000C9450AC0C94098B0C94AA8B0C94E78EF9
:100D40000C94618E0C9466AC0C94AA8D0C94EB8A76
:100D50000C94658D0C94867B0C94ED8652657365BE
:100D60007420636F6E74726F6C2069732063757288
:100D700072656E746C792064697361626C65642E4F
:100D800000436F6D6D732068616C7465642E204E36
:100D900065787420627974652077696C6C2072655F
:100DA000736574207468652041726475696E6F2E76
:100DB0000000537065656475696E6F20323032349F
:100DC0002E30352D64657600737065656475696EC7
:100DD0006F203230323430352D64657600000030BB
:100DE000303200FF0A5061676520686173206E6FC2
:100DF00074206265656E20696D706C656D656E74DA
:100E0000656420796574000A426F6F7374206C6F9B
:100E10006F6B7570207461626C65000A326E6420BD
:100E200049676E6974696F6E204D6170000A326E99
:100E300064204675656C204D6170000A50616765DD
:100E4000203920436667000A5472696D20312054AE
:100E500061626C65000A565654204D6170000A426A
:100E60006F6F7374204D6170000A50672036204305
:100E70006F6E666967000A414652204D6170000A34
:100E80005067203420436667000A49676E697469B9
:100E90006F6E204D6170000A5067203220436667F4
:100EA000000A5645204D6170000A3D3D3D436F6D7F
:100EB0006D616E642048656C703D3D3D0A0A416C71
:100EC0006C20636F6D6D616E647320617265207359
:100ED000696E676C65206368617261637465722016
:100EE000616E642061726520636F6E636174656E0C
:100EF000617465642077697468207468656972201C
:100F0000706172616D6574657273200A77697468C7
:100F10006F7574207370616365732E53796E74619D
:100F2000783A20203C636F6D6D616E643E2B3C709F
:100F30006172616D65746572313E2B3C70617261E6
:100F40006D65746572323E2B3C706172616D6574C3
:100F500065724E3E0A0A3D3D3D4C697374206F66D2
:100F600020436F6D6D616E64733D3D3D0A0A412003
:100F70002D20446973706C6179732033312062795C
:100F8000746573206F662063757272656E74537436
:100F9000617475732076616C75657320696E20626B
:100FA000696E61727920286C69766520646174616C
:100FB000290A42202D204275726E20637572726577
:100FC0006E74206D617020616E6420636F6E66695F
:100FD00067506167652076616C75657320746F205A
:100FE000656570726F6D0A43202D205465737420FF
:100FF000434F4D20706F72742E202055736564200E
:1010000062792054756E657273747564696F2074AB
:101010006F20736565207768657468657220616EFE
:1010200020454355206973206F6E206120676976E3
:10103000656E2073657269616C200A202020207023
:101040006F72742E2052657475726E732061206207
:10105000696E617279206E756D6265722E0A4E201E
:101060002D205072696E74206E6577206C696E65F4
:101070002E0A50202D205365742063757272656EA0
:101080007420706167652E202053796E7461783A00
:101090002020502B3C706167654E756D6265723E15
:1010A0000A52202D2053616D652061732041206319
:1010B0006F6D6D616E640A53202D20446973706CEE
:1010C0006179207369676E6174757265206E756DE4
:1010D0006265720A51202D2053616D652061732075
:1010E0005320636F6D6D616E640A56202D20446934
:1010F00073706C6179206D6170206F7220636F6E08
:10110000666967506167652076616C7565732069F3
:101110006E2062696E6172790A57202D20536574C2
:10112000206F6E65206279746520696E206D617034
:10113000206F7220636F6E666967506167652E204D
:1011400020457870656374732062696E61727920DE
:10115000706172616D65746572732E200A202020A3
:101160002053796E7461783A2020572B3C6F666665
:101170007365743E2B3C6E6577627974653E0A74C4
:10118000202D205365742063616C696272617469FB
:101190006F6E2076616C7565732E202045787065C2
:1011A0006374732062696E61727920706172616D1F
:1011B00065746572732E20205461626C6520696EBF
:1011C0006465782069732065697468657220302CC5
:1011D000200A20202020312C206F7220322E202047
:1011E00053796E7461783A2020742B3C74626C657C
:1011F0005F6964783E2B3C6E657756616C7565312E
:101200003E2B3C6E657756616C7565323E2B3C6EAD
:10121000657756616C75654E3E0A5A202D204469EB
:1012200073706C61792063616C6962726174696F5B
:101230006E2076616C7565730A54202D20446973A5
:10124000706C6179732032353620746F6F7468204A
:101250006C6F6720656E747269657320696E2062B9
:10126000696E6172790A72202D20446973706C6115
:1012700079732032353620746F6F7468206C6F6715
:1012800020656E74726965730A55202D2050726551
:101290007061726520666F72206669726D77617227
:1012A00065207570646174652E20546865206E65D4
:1012B0007874206279746520726563656976656407
:1012C0002077696C6C206361757365207468652094
:1012D00041726475696E6F20746F207265736574F6
:1012E0002E0A3F202D20446973706C61797320743D
:1012F0006869732068656C702070616765002C20D8
:1013000000575545004F3200496E6C657420746576
:101310006D7000436F6F6C616E740052657365741D
:1013200020636F6E74726F6C2069732063757272C4
:10133000656E746C792064697361626C65642E00FB
:10134000436F6D6D732068616C7465642E204E650B
:10135000787420627974652077696C6C207265738B
:101360006574207468652041726475696E6F2E0023
:101370004552523B20496E636F727265637420451B
:101380004550524F4D2073697A650030303200204D
:1013900000200020002000202020200053706565E0
:1013A0006475696E6F20323032342E30352D6465AD
:1013B0007600737065656475696E6F203230323403
:1013C00030352D64657600537065656475696E6FA0
:1013D0002063737830323031392E380000008000BD
:1013E00020012001800020018000F0008001C00069
:1013F000C0002001C000800020010001040E111671
:101400001A1C212A2C2E30323436383A3C3E4042C7
:101410004446484C4E505256585A5D5F63686F7947
:101420007D000020002300260029002C002F003220
:10143000000001000003010601090100000A0B027F
:10144000090C0D0E08070304010000000000000055
:10145000000000000000000000000000000000008C
:101460000000000000000012111000000000000049
:10147000000000000000000000000000000000006C
:101480000000000000963007772C610EEEBA51097B
:101490009919C46D078FF46A7035A563E9A3956443
:1014A0009E3288DB0EA4B8DC791EE9D5E088D9D25B
:1014B000972B4CB609BD7CB17E072DB8E7911DBFB7
:1014C000906410B71DF220B06A4871B9F3DE41BED6
:1014D000847DD4DA1AEBE4DD6D51B5D4F4C785D33D
:1014E0008356986C13C0A86B647AF962FDECC965E9
:1014F0008A4F5C0114D96C0663633D0FFAF50D0841
:101500008DC8206E3B5E10694CE44160D5727167F6
:10151000A2D1E4033C47D4044BFD850DD26BB50A40
:10152000A5FAA8B5356C98B242D6C9BBDB40F9BC68
:10153000ACE36CD832755CDF45CF0DD6DC593DD1BC
:10154000ABAC30D9263A00DE518051D7C81661D0F5
:10155000BFB5F4B42123C4B3569995BACF0FA5BD36
:10156000B89EB802280888055FB2D90CC624E90BDA
:10157000B1877C6F2F114C6858AB1D61C13D2D6642
:10158000B69041DC760671DB01BC20D2982A10D5DA
:10159000EF8985B1711FB5B606A5E4BF9F33D4B8F6
:1015A000E8A2C9077834F9000F8EA8099618980E9A
:1015B000E1BB0D6A7F2D3D6D08976C6491015C6302
:1015C000E6F4516B6B62616C1CD83065854E00622D
:1015D000F2ED95066C7BA5011BC1F4088257C40F80
:1015E000F5C6D9B06550E9B712EAB8BE8B7C88B9A8
:1015F000FCDF1DDD62492DDA15F37CD38C654CD4FC
:10160000FB5861B24DCE51B53A7400BCA3E230BB79
:10161000D441A5DF4AD795D83D6DC4D1A4FBF4D6FB
:10162000D36AE96943FCD96E34468867ADD0B860A7
:10163000DA732D0444E51D03335F4C0AAAC97C0DFF
:10164000DD3C710550AA41022710100BBE86200C0C
:10165000C925B56857B3856F2009D466B99FE46181
:10166000CE0EF9DE5E98C9D9292298D0B0B4A8D799
:10167000C7173DB359810DB42E3B5CBDB7AD6CBAF5
:10168000C02083B8EDB6B3BF9A0CE2B6039AD2B1CC
:10169000743947D5EAAF77D29D1526DB048316DC73
:1016A00073120B63E3843B64943E6A6D0DA85A6A1F
:1016B0007A0BCF0EE49DFF099327AE000AB19E0777
:1016C0007D44930FF0D2A3088768F2011EFEC20684
:1016D000695D5762F7CB67658071366C19E7066BF9
:1016E0006E761BD4FEE02BD3895A7ADA10CC4ADD11
:1016F000676FDFB9F9F9EFBE8E43BEB717D58EB06D
:1017000060E8A3D6D67E93D1A1C4C2D83852F2DF06
:101710004FF167BBD16757BCA6DD06B53F4B36B26C
:1017200048DA2B0DD84C1B0AAFF64A0336607A0410
:1017300041C3EF60DF55DF67A8EF8E6E3179BE6978
:10174000468CB361CB1A8366BCA0D26F2536E268A3
:101750005295770CCC03470BBBB91602222F2605F6
:1017600055BE3BBAC5280BBDB2925AB42B046AB31E
:101770005CA7FFD7C231CFD0B58B9ED92C1DAEDE72
:101780005BB0C2649B26F263EC9CA36A750A936DFE
:1017900002A906099C3F360EEB85670772135700B6
:1017A00005824ABF95147AB8E2AE2BB17B381BB6DE
:1017B0000C9B8ED2920DBED5E5B7EFDC7C21DFDB32
:1017C0000BD4D2D38642E2D4F1F8B3DD686E83DA6B
:1017D0001FCD16BE815B26B9F6E177B06F7747B7AC
:1017E00018E65A0888706A0FFFCA3B06665C0B0150
:1017F00011FF9E658F69AE62F8D3FF6B6145CF6CB8
:101800001678E20AA0EED20DD75483044EC2B30379
:1018100039612667A7F71660D04D476949DB776EB7
:101820003E4A6AD1AEDC5AD6D9660BDF40F03BD8CF
:101830003753AEBCA9C59EBBDE7FCFB247E9FFB52B
:10184000301CF2BDBD8AC2BACA3093B353A6A3B44A
:10185000240536D0BA9306D7CD2957DE54BF67D9B1
:10186000232E7A66B3B84A61C4021B685D942B6F5D
:101870002A37BE0BB4A18E0CC31BDF055A8DEF02B5
:101880002D00002200250028002B002E00310034FE
:101890000002010000050108010B010000210024E5
:1018A0000027002A002D0030003300010100000451
:1018B0000107010A010505050507050808080802D2
:1018C0000202020A0A0808040404040101010101D9
:1018D0000101010303030303030303040707070CC8
:1018E0000C0C0C0C0C0C0C0202020206060606067E
:1018F0000606060B0B0B0B0B0B0B0B01021020202B
:101900000808102040102040800201020108040253
:1019100001010204081020408080402010080402C9
:101920000180040201804020100804020108040222
:101930000101020408102040800102040810204028
:101940008000980411241FBECFEFD1E2DEBFCDBFCF
:1019500000E00CBF12E0A0E0B2E0E0E1F9E403E057
:101960000BBF02C007900D92A637B107D9F72FE140
:10197000A6E7B2E001C01D92A73DB207E1F71CE067
:10198000C2EADCE000E006C021970109802FFE01D9
:101990000F940BA4C13AD10780E00807A9F70F9470
:1019A000757E0D9486A40C9400008091180B909184
:1019B000190B2091C81C3091C91CAC01445051092D
:1019C0002417350714F080539D4F821B930B97FD0E
:1019D0000196959587950497909396058093950524
:1019E00080912A0890912B08AC014450510924178A
:1019F000350714F080539D4F821B930B97FD019682
:101A0000959587950497909394058093930580917D
:101A1000280890912908AC01445051092417350732
:101A200014F080539D4F821B930B97FD0196959563
:101A3000879504979093920580939105809126084D
:101A400090912708AC01445051092417350714F030
:101A500080539D4F821B930B97FD0196959587951B
:101A60000497909376058093750508958F929F92C1
:101A7000AF92BF92CF92DF92EF92FF920F931F939C
:101A8000CF93DF93F894C090B70CD090B80CE0904F
:101A9000B90CF090BA0C8090F6069090F706A090E2
:101AA000F806B090F906C091FB06D091FC060F94A1
:101AB000DA7260938D0570938E0580938F059093F5
:101AC00090057894CE010197880F991F2091C81C2A
:101AD0003091C91C820F931FA6010D2C000C660BC0
:101AE000770B00918D0510918E0520918F05309117
:101AF0009005041B150B260B370B009389051093DB
:101B00008A0520938B0530938C05A6014819590945
:101B100057FF02C04F5F5F4F55954795052E000C4C
:101B2000660B770B401751076207730708F401969D
:101B3000803D22E092077CF0805D9240DF91CF9162
:101B40001F910F91FF90EF90DF90CF90BF90AF90DB
:101B50009F908F90089597FFF1CF88599E4FEECFB9
:101B60000F94DA7260937105709372058093730518
:101B7000909374058091710590917205A091730501
:101B8000B09174054091B30C5091B40C6091B50CB8
:101B90007091B60C841B950BA60BB70B80937B053D
:101BA00090937C05A0937D05B0937E05809171058F
:101BB00090917205A0917305B09174058093B30C58
:101BC0009093B40CA093B50CB093B60C8091CE1C3E
:101BD000482F41702091B00C3091B10C232B51F162
:101BE000E091AC06F091AD0690812091AB06922376
:101BF00021E049F12417F1F02091FB063091FC0619
:101C00004091B00C5091B10C241B9091411E90FD5D
:101C10001EC08091400C807F803451F1803609F4E1
:101C200051C0803809F45DC08091411E8E7F809341
:101C3000411E08958091FB069091FC069093B10C93
:101C40008093B00C089520E02413D6CFF3CF87FF04
:101C500008958091400C807F8034D1F72F5023303D
:101C6000B8F780E190E09093FC068093FB0608951E
:101C700081EF820F8330D0F085EF820F833008F43C
:101C800040C089EF820F833008F447C023502330CF
:101C900008F04FC082E191E09093FC068093FB0630
:101CA0008091411E81608093411E089580E190E003
:101CB0009093FC068093FB068091411E8160809387
:101CC000411E08952350233018F68CE790E090933E
:101CD000FC068093FB068091411E81608093411E2B
:101CE00008952650233008F0B3CF88E390E0909316
:101CF000FC068093FB068091411E81608093411E0B
:101D0000089586E690E09093FC068093FB06809110
:101D1000411E81608093411E08958CEB90E090936A
:101D2000FC068093FB068091411E81608093411EDA
:101D300008958091411E8E7F8093411E8091F11EF7
:101D40008F5F8093F11E08950895CF92DF92EF92F6
:101D5000FF92CF93DF93F894C091FB06D091FC06DD
:101D6000C090B70CD090B80CE090B90CF090BA0CC1
:101D70000F94DA7260938D0570938E0580938F05B2
:101D8000909390057894209719F4C091D71CD0E0D7
:101D900020910307309104072197C29FC001C39F80
:101DA000900DD29F900D11246091CC1C70E00F9487
:101DB00035A3E091C81CF091C91CE60FF71F2091D4
:101DC0008D0530918E0540918F05509190052C190D
:101DD0003D094E095F092093890530938A05409398
:101DE0008B0550938C05A0918705B09188050F94C1
:101DF000ABA3DC01CB01905CAF4FBF4F9D01990FAE
:101E0000221F331FA12DAA1FB12DC9018E0F9F1FA5
:101E1000803D22E092074CF0805D9240DF91CF91AF
:101E2000FF90EF90DF90CF90089597FFF7CF8859FC
:101E30009E4FDF91CF91FF90EF90DF90CF9008956C
:101E40000895CF92DF92EF92FF92CF93DF9380912C
:101E5000411E80FD09C090E080E0DF91CF91FF90AE
:101E6000EF90DF90CF900895F894C091FB06D09149
:101E7000FC06C090B70CD090B80CE090B90CF09074
:101E8000BA0C0F94DA7260938D0570938E0580936F
:101E90008F05909390057894CC0FDD1FC854D94FCF
:101EA000E881F9818091C81C9091C91CE80FF91F45
:101EB00020918D0530918E0540918F0550919005B0
:101EC0002C193D094E095F092093890530938A0535
:101ED00040938B0550938C05A0918705B0918805A0
:101EE0000F94ABA3DC01CB01905CAF4FBF4F9D01C2
:101EF000990F221F331FA12DAA1FB12DC9018E0FCB
:101F00009F1F803D22E092075CF497FFA6CF88597F
:101F10009E4FDF91CF91FF90EF90DF90CF9008958B
:101F2000805D9240DF91CF91FF90EF90DF90CF9056
:101F300008953FB7F89480918B0D90918C0DA091EE
:101F40008D0DB0918E0D26B5A89B05C02F3F19F0C1
:101F50000196A11DB11D3FBFBA2FA92F982F882729
:101F6000820F911DA11DB11D880F991FAA1FBB1FB4
:101F7000880F991FAA1FBB1F80937105909372054C
:101F8000A0937305B093740580917B0590917C05B7
:101F9000A0917D05B0917E058093B6069093B7061B
:101FA000A093B806B093B90680917105909172051F
:101FB000A0917305B09174054091B30C5091B40C8D
:101FC0006091B50C7091B60C841B950BA60BB70BEA
:101FD00080937B0590937C05A0937D05B0937E054F
:101FE0008091710590917205A0917305B09174056F
:101FF0008093B30C9093B40CA093B50CB093B60C33
:102000008091411E80FD4BC08091B00C9091B10C2D
:10201000029709F445C08CED95E0A0E0B0E0809314
:10202000FD069093FE06A093FF06B09300078091F3
:10203000B6069091B706A091B806B091B906B695CC
:10204000A795979587958093690590936A05A093C6
:102050006B05B0936C0540917B0550917C056091B8
:102060007D0570917E058091690590916A05A0912A
:102070006B05B0916C05481759076A077B0730F468
:1020800082E090E09093B10C8093B00C8091B00C02
:102090009091B10C01969093B10C8093B00C08957F
:1020A00081E090E09093FC068093FB068091411EB6
:1020B00081608093411EEACF9091781E8091D41C5C
:1020C0008C718C3071F19A30BCF41916A4F421E0B3
:1020D00030E0309396052093950583E090E090934F
:1020E00094058093930530939205209391059093E6
:1020F000760580937505089524E030E030939605C9
:102100002093950582E090E0909394058093930549
:1021100030939205209391059093760580937505F1
:1021200008959A30DCF4191634F781E090E090932A
:1021300096058093950583E090E0909394058093B5
:10214000930585E090E0909392058093910587E058
:1021500090E09093760580937505089588E090E06F
:10216000909396058093950582E090E09093940576
:102170008093930584E090E090939205809391057D
:1021800086E090E090937605809375050895EF9230
:10219000FF920F931F93F894E091FB06F091FC06D9
:1021A0004091B70C5091B80C6091B90C7091BA0C79
:1021B0003FB7F89480918B0D90918C0DA0918D0D6F
:1021C000B0918E0D26B5A89B05C02F3F19F0019642
:1021D000A11DB11D3FBFBA2FA92F982F8827820FAD
:1021E000911DA11DB11D880F991FAA1FBB1F880F2C
:1021F000991FAA1FBB1F80938D0590938E05A093F6
:102200008F05B09390057894EE0FFF1FE854F94FB7
:102210000190F081E02D8091C81C9091C91CE80FBD
:10222000F91F80918D0590918E05A0918F05B09139
:1022300090057C018D01E41AF50A060B170BA80125
:1022400097012093890530938A0540938B0550931D
:102250008C05A0918705B09188050F94ABA3DC0194
:10226000CB01905CAF4FBF4F9D01990F221F331FD1
:10227000A12DAA1FB12DC9018E0F9F1F803D02E025
:1022800090073CF0805D92401F910F91FF90EF907E
:10229000089597FFF9CF88599E4F1F910F91FF9096
:1022A000EF9008953FB7F89480918B0D90918C0D2D
:1022B000A0918D0DB0918E0D26B5A89B05C02F3F26
:1022C00019F00196A11DB11D3FBFBA2FA92F982F5C
:1022D0008827820F911DA11DB11D880F991FAA1F6C
:1022E000BB1F880F991FAA1FBB1F80937105909376
:1022F0007205A0937305B093740580917105909158
:102300007205A0917305B09174054091B30C509182
:10231000B40C6091B50C7091B60C841B950BA60B98
:10232000B70B80937B0590937C05A0937D05B093BC
:102330007E058091971E81FD49C08091411E80FFDE
:1023400045C040917B0550917C0560917D05709161
:102350007E058091EA069091EB06A091EC06B09183
:10236000ED06481759076A077B0778F180917105D8
:1023700090917205A0917305B09174058093B30C90
:102380009093B40CA093B50CB093B60C80917B05E0
:1023900090917C05A0917D05B0917E058093B60655
:1023A0009093B706A093B806B093B9068091B00C8D
:1023B0009091B10C01969093B10C8093B00C8091E8
:1023C000FB069091FC06019771F008958CED95E065
:1023D000A0E0B0E08093FD069093FE06A093FF0678
:1023E000B0930007AECF4091710550917205609196
:1023F0007305709174058091B70C9091B80CA09101
:10240000B90CB091BA0C84179507A607B707E8F680
:102410008091710590917205A0917305B09174053A
:102420004091B70C5091B80C6091B90C7091BA0CF6
:10243000841B950BA60BB70B80935F0590936005EB
:10244000A0936105B0936205089508950F931F93BB
:10245000CF93DF93F894C091FB06D091FC060F94C4
:10246000DA7260938D0570938E0580938F0590933B
:1024700090050091B70C1091B80C2091B90C3091D7
:10248000BA0C601B710B820B930B609389057093E0
:102490008A0580938B0590938C057894E5EDF0E0A8
:1024A000CE30D10581F0EDE4F1E0C631D10559F02F
:1024B00080910307909104078C9FF0018D9FF00D90
:1024C0009C9FF00D1124A0918705B0918805209163
:1024D000890530918A0540918B0550918C050F94A8
:1024E000ABA3DC01CB01905CAF4FBF4F9D01990FB7
:1024F000221F331FA12DAA1FB12DC9012091C81C75
:102500003091C91C2E0F3F1F820F931F803D22E088
:102510009207BCF0805D92404091120250911302EC
:1025200020910A0230910B022417350734F1281745
:10253000390714F4821B930BDF91CF911F910F91F8
:102540000895409112025091130220910A02309195
:102550000B022417350764F0281739075CF397FF3F
:10256000EBCF88599E4FDF91CF911F910F91089526
:102570009A01281739079CF7DDCF9A0128173907E8
:10258000CCF2DACF0F932091D50A3091D60A409140
:10259000D70A5091D80A2F3F8FEF380741055105D0
:1025A00030F521153105E9F0C90196958795B0E020
:1025B000A0E09957AC46BC4FA217B30790F400E1D6
:1025C000880F991FAA1FBB1F18F0A217B30718F096
:1025D000A21BB30B81600A9599F7803526E4920718
:1025E00020F08091421E9091431E0F910895CA01E0
:1025F000B901969587957795679579578C469C4F45
:102600000F94BEA3C901803526E4920750F70F91BD
:10261000089508950895CF92DF92EF92FF92CF939D
:10262000DF93F894C091FB06D091FC06C090B70CE4
:10263000D090B80CE090B90CF090BA0C0F94DA720C
:1026400060938D0570938E0580938F059093900510
:1026500078948091030790910407209709F042C075
:102660002BE0289FF001299FF00D11248091C81CB8
:102670009091C91CE80FF91F20918D0530918E05AE
:1026800040918F05509190052C193D094E095F0925
:102690002093890530938A0540938B0550938C05D0
:1026A000A0918705B09188050F94ABA3DC01CB0105
:1026B000905CAF4FBF4F9D01990F221F331FA12D7B
:1026C000AA1FB12DC9018E0F9F1F803D22E09207E6
:1026D000C4F0805D9240DF91CF91FF90EF90DF904A
:1026E000CF9008952197C89FF001C99FF00DD89F02
:1026F000F00D11248091C81C9091C91CE80FF91F9E
:10270000BBCF97FFE8CF88599E4FDF91CF91FF90C5
:10271000EF90DF90CF900895089580917F0590917C
:102720008005A0918105B09182058093B6069093B3
:10273000B706A093B806B093B9060F94DA72609307
:102740008305709384058093850590938605809119
:10275000830590918405A0918505B09186054091EF
:10276000B70C5091B80C6091B90C7091BA0C841BE5
:10277000950BA60BB70B80937F0590938005A093D4
:102780008105B09382058091FB069091FC0601962D
:102790009093FC068093FB068091280B80628093C7
:1027A000280B8091FB069091FC060D9709F45BC005
:1027B0008091FB069091FC06019709F45DC0809121
:1027C000B6069091B706A091B806B091B906B69535
:1027D000A795979587958093690590936A05A0932F
:1027E0006B05B0936C0540917F0550918005609119
:1027F0008105709182058091690590916A05A0918B
:102800006B05B0916C05481759076A077B0708F1FB
:102810008091B70C9091B80CA091B90CB091BA0C02
:102820008093F6069093F706A093F806B093F90606
:102830008091830590918405A0918505B0918605CE
:102840008093B70C9093B80CA093B90CB093BA0CCA
:1028500008951092FC061092FB068091411E816043
:102860008093411E08958091411E80FFA1CF109258
:10287000FC061092FB0608958091411E80FF9FCFB9
:102880008091F2069091F306A091F406B091F506BE
:102890008093EE069093EF06A093F006B093F106B6
:1028A0008091830590918405A0918505B09186055E
:1028B0008093F2069093F306A093F406B093F50686
:1028C0008091B51E9091B61EA091B71EB091B81E12
:1028D0000196A11DB11D8093B51E9093B61EA093C5
:1028E000B71EB093B81E8091B70C9091B80CA09110
:1028F000B90CB091BA0C8093F6069093F706A093AA
:10290000F806B093F9068091830590918405A09113
:102910008505B09186058093B70C9093B80CA09371
:10292000B90CB093BA0C089508958F929F92AF920C
:10293000BF92FF920F931F93CF93DF93F894C091B0
:10294000FB06D091FC068090B70C9090B80CA0903C
:10295000B90CB090BA0CF090B5060F94DA7260938F
:102960008D0570938E0580938F05909390057894D4
:10297000FE013197CD2B11F4ECE2F0E0009103075A
:1029800010910407C091C81CD091C91C20918D05DD
:1029900030918E0540918F05509190052819390985
:1029A0004A095B092093890530938A0540938B057A
:1029B00050938C05A0918705B09188050F94ABA327
:1029C000DC01CB01905CAF4FBF4F9D01990F221FDF
:1029D000331FA12DAA1FB12DC9010E9F90010F9F7A
:1029E000300D1E9F300D1124820F931F8C0F9D1FE1
:1029F000FF2011F088599E4F803D22E0920764F03D
:102A0000805D9240DF91CF911F910F91FF90BF9019
:102A1000AF909F908F90089597FFF4CF409112024E
:102A20005091130220910A0230910B0224173507AE
:102A30001CF0820F931FE6CF9A01820F931FE2CF03
:102A40008091411E80FF1FC08091CE1C87FD2BC04E
:102A50008091B51E9091B61EA091B71EB091B81E80
:102A600084369105A105B10550F48091FB06909143
:102A7000FC068D9721F01092FC061092FB0681E077
:102A80008093B50608951092FC061092FB06809183
:102A9000411E81608093411E83E08093B20C81E0EF
:102AA0008093B50608951092FC061092FB0683E011
:102AB0008093B20C81E08093B50608950F94DA728A
:102AC00060938305709384058093850590938605B4
:102AD0008091830590918405A0918505B09186052C
:102AE00040915B0550915C0560915D0570915E05BC
:102AF000841B950BA60BB70B80937F0590938005E5
:102B0000A0938105B093820540917F055091800587
:102B100060918105709182058091FD069091FE067D
:102B2000A091FF06B091000784179507A607B70785
:102B300068F08091B51E9091B61EA091B71EB0911D
:102B4000B81E892B8A2B8B2B09F0B5C08091B20C53
:102B50008F5F8093B20C8091411E80FF9CC080915A
:102B6000B20C833008F4A7C08091280B8062809358
:102B7000280B8091830590918405A0918505B091E3
:102B8000860580935B0590935C05A0935D05B093EB
:102B90005E051092B20C8091FB069091FC060196A6
:102BA0009093FC068093FB068091FB069091FC06B7
:102BB000019739F08091FB069091FC068E9708F4FE
:102BC0003FC081E090E09093FC068093FB068091EB
:102BD000F2069091F306A091F406B091F506809369
:102BE000EE069093EF06A093F006B093F106809165
:102BF000830590918405A0918505B0918605809309
:102C0000F2069093F306A093F406B093F506809134
:102C1000B50691E089278093B5068091B51E909105
:102C2000B61EA091B71EB091B81E0196A11DB11D90
:102C30008093B51E9093B61EA093B71EB093B81E96
:102C400040917F05509180056091810570918205CA
:102C50008091D41C807639F08032D1F1803409F42F
:102C600048C0803649F11092FD061092FE0610927F
:102C7000FF06109200078091B70C9091B80CA091BC
:102C8000B90CB091BA0C8093F6069093F706A09316
:102C9000F806B093F9068091830590918405A09180
:102CA0008505B09186058093B70C9093B80CA093DE
:102CB000B90CB093BA0C0895DB01CA01880F991FB3
:102CC000AA1FBB1F840F951FA61FB71FAC01BD0114
:102CD0007695679557954795769567955795479556
:102CE0004093FD065093FE066093FF067093000725
:102CF000C2CF76956795579547954093FD065093BB
:102D0000FE066093FF0670930007B5CF0895CF923B
:102D1000DF92EF92FF92CF93DF93F894C091FB067E
:102D2000D091FC06C090B70CD090B80CE090B90CD4
:102D3000F090BA0C0F94DA7260938D0570938E0543
:102D400080938F059093900578948091FB069091E5
:102D5000FC06892B09F03CC0E091C81CF091C91C0D
:102D6000EE58FF4F20918D0530918E0540918F05D3
:102D7000509190052C193D094E095F092093890552
:102D800030938A0540938B0550938C05A09187055D
:102D9000B09188050F94ABA3DC01CB01905CAF4FE1
:102DA000BF4F9D01990F221F331FA12DAA1FB12DC7
:102DB000C9018E0F9F1F803D22E09207B4F0805D15
:102DC0009240DF91CF91FF90EF90DF90CF900895E8
:102DD000CC0FDD1FC854D94FE881F9818091C81C00
:102DE0009091C91CE80FF91FBDCF97FFEACF885912
:102DF0009E4FDF91CF91FF90EF90DF90CF9008959D
:102E00001092FC061092FB0608958091FB069091AB
:102E1000FC060D9709F4A9C00F94DA72609383053C
:102E20007093840580938505909386058091830532
:102E300090918405A0918505B09186054091B70CCD
:102E40005091B80C6091B90C7091BA0C841B950B21
:102E5000A60BB70B80937F0590938005A093810507
:102E6000B093820540917F05509180056091810566
:102E7000709182058091FD069091FE06A091FF065B
:102E8000B0910007481759076A077B0708F46CC020
:102E90008091FB069091FC06892B09F46CC080910F
:102EA000FB069091FC0601969093FC068093FB062E
:102EB000A091FB06B091FC06E091FB06F091FC06A8
:102EC000AA0FBB1FA854B94FEE0FFF1FEA54F94FCA
:102ED0008D919C9120813181821B930B90930407EB
:102EE0008093030740917F05509180056091810593
:102EF000709182058091D41C807649F0803209F46B
:102F00008BC0803409F499C0803609F479C01092DE
:102F1000FD061092FE061092FF06109200078091A7
:102F2000280B80628093280B8091B70C9091B80C8D
:102F3000A091B90CB091BA0C8093F6069093F70665
:102F4000A093F806B093F9068091830590918405CB
:102F5000A0918505B09186058093B70C9093B80C2D
:102F6000A093B90CB093BA0C08958091411E8E7F46
:102F70008093411E089581E090E09093FC06809339
:102F8000FB068091F2069091F306A091F406B091B1
:102F9000F5068093EE069093EF06A093F006B093AB
:102FA000F1068091830590918405A0918505B091EB
:102FB00086058093F2069093F306A093F406B093EF
:102FC000F5068091411E81608093411E8091B51E5F
:102FD0009091B61EA091B71EB091B81E0196A11D8A
:102FE000B11D8093B51E9093B61EA093B71EB093EB
:102FF000B81E8CE390E0909304078093030772CF90
:10300000DB01CA01880F991FAA1FBB1F840F951FE0
:10301000A61FB71FAC01BD017695679557954795DB
:1030200076956795579547954093FD065093FE0614
:103030006093FF067093000772CF7695679557955A
:1030400047954093FD065093FE066093FF067093EC
:10305000000765CF0895CF92DF92EF92FF920F9312
:103060001F93CF93F8940091FB061091FC06C0903B
:10307000B70CD090B80CE090B90CF090BA0CC0919D
:10308000B5060F94DA7260938D0570938E05809368
:103090008F05909390057894E091C81CF091C91C1D
:1030A0000115110571F0000F111FF801E854F94FD7
:1030B0000190F081E02D8091C81C9091C91CE80F0F
:1030C000F91F20918D0530918E0540918F0550910B
:1030D00090052C193D094E095F092093890530930D
:1030E0008A0540938B0550938C05A0918705B0917C
:1030F00088050F94ABA3DC01CB01905CAF4FBF4FB1
:103100009D01990F221F331FA12DAA1FB12DC901A7
:103110008E0F9F1FCC2311F088599E4F803D22E0D7
:10312000920754F0805D9240CF911F910F91FF90D4
:10313000EF90DF90CF90089597FFF6CF88599E4F7C
:10314000CF911F910F91FF90EF90DF90CF90089556
:103150001092FC061092FB0681E08093B50608955C
:103160008091FB069091FC06499709F4D1C03FB7C6
:10317000F89480918B0D90918C0DA0918D0DB09154
:103180008E0D26B5A89B05C02F3F19F00196A11DF5
:10319000B11D3FBFBA2FA92F982F8827820F911DED
:1031A000A11DB11D880F991FAA1FBB1F880F991F52
:1031B000AA1FBB1F8093830590938405A093850568
:1031C000B09386058091830590918405A091850533
:1031D000B09186054091B70C5091B80C6091B90C34
:1031E0007091BA0C841B950BA60BB70B80937F05CF
:1031F00090938005A0938105B09382058091FB0692
:103200009091FC06892BC9F18091FB069091FC06F8
:1032100001969093FC068093FB06A091FB06B0916B
:10322000FC06E091FB06F091FC06AA0FBB1FA85418
:10323000B94FEE0FFF1FEA54F94F8D919C912081F9
:103240003181821B930B9093040780930307809135
:10325000280B80628093280B8091830590918405D0
:10326000A0918505B09186058093B70C9093B80C1A
:10327000A093B90CB093BA0C089581E090E09093BC
:10328000FC068093FB068091F2069091F306A091D4
:10329000F406B091F5068093EE069093EF06A093A6
:1032A000F006B093F1068091830590918405A0917A
:1032B0008505B09186058093F2069093F306A0935E
:1032C000F406B093F5068091B50691E089278093C6
:1032D000B5068091411E81608093411E8091B51E8C
:1032E0009091B61EA091B71EB091B81E0196A11D77
:1032F000B11D8093B51E9093B61EA093B71EB093D8
:10330000B81E8FE090E090930407809303079FCF4F
:103310008091411E8E7F8093411E08958091400CC4
:10332000807F8034F1F08036D9F48091D41C8C7188
:103330008C3089F186E090E0909396058093950516
:1033400082E090E0909394058093930524E030E030
:10335000309392052093910590937605809375059F
:1033600008958091D41C8C718C30A9F024E030E059
:10337000309396052093950582E090E09093940514
:103380008093930530939205209391059093760551
:1033900080937505089588E090E09093960580935A
:1033A000950582E090E0909394058093930584E0E6
:1033B00090E0909392058093910586E090E0909341
:1033C00076058093750508958F929F92AF92BF9274
:1033D000CF92DF92EF92FF920F931F93CF93DF93E1
:1033E0008091411E80FD0FC090E080E0DF91CF9181
:1033F0001F910F91FF90EF90DF90CF90BF90AF9013
:103400009F908F900895F894E091FB06F091FC0650
:103410004091B70C5091B80C6091B90C7091BA0CF6
:103420003FB7F89480918B0D90918C0DA0918D0DEC
:10343000B0918E0D26B5A89B05C02F3F19F00196BF
:10344000A11DB11D3FBFBA2FA92F982F8827820F2A
:10345000911DA11DB11D880F991FAA1FBB1F880FA9
:10346000991FAA1FBB1F80938D0590938E05A09373
:103470008F05B09390057894EE0FFF1FE854F94F35
:10348000C081D1818091C81C9091C91CC80FD91FDF
:1034900080918D0590918E05A0918F05B09190053A
:1034A0007C018D01E41AF50A060B170BA8019701A0
:1034B0002093890530938A0540938B0550938C05A2
:1034C000F8948091280B86FF2EC0C090B70CD09046
:1034D000B80CE090B90CF090BA0C8090F606909081
:1034E000F706A090F806B090F906A0910307B091F6
:1034F000040778940F94ABA3A70196012819390902
:103500004A095B090F94BEA3C9018C0F9D1F803D22
:1035100002E090072CF497FF69CF88599E4F66CF41
:10352000805D924063CF7894A0918705B091880523
:103530000F94ABA3DC01CB01905CAF4FBF4F9D015B
:10354000990F221F331FA12DAA1FB12DC901DDCF55
:103550008091411E3FB7F89480918B0D90918C0D16
:10356000A0918D0DB0918E0D26B5A89B05C02F3F63
:1035700019F00196A11DB11D3FBFBA2FA92F982F99
:103580008827820F911DA11DB11D880F991FAA1FA9
:10359000BB1F880F991FAA1FBB1F809371059093B3
:1035A0007205A0937305B093740580917105909195
:1035B0007205A0917305B09174054091B30C5091C0
:1035C000B40C6091B50C7091B60C841B950BA60BD6
:1035D000B70B80937B0590937C05A0937D05B093FA
:1035E0007E0540917B0550917C0560917D05709131
:1035F0007E058091EA069091EB06A091EC06B091D1
:10360000ED06481759076A077B0708F473C08091D5
:10361000710590917205A0917305B0917405809326
:10362000B30C9093B40CA093B50CB093B60C8091EE
:10363000280B80628093280B80917B0590917C05FC
:10364000A0917D05B0917E05B695A7959795879534
:103650008093EA069093EB06A093EC06B093ED06F8
:103660008091411E80FD32C08CED95E0A0E0B0E07D
:103670008093FD069093FE06A093FF06B09300078B
:103680008091EA069091EB06A091EC06B091ED06D0
:10369000B695A795979587958093EA069093EB0644
:1036A000A093EC06B093ED06E091AF06F091B00662
:1036B00090812091AE068091400C807F922301F191
:1036C000803409F458C0803609F44DC02091421E60
:1036D0003091431E8091E11E9091E21E2817390718
:1036E00050F48091411E80FF05C08091400C807F86
:1036F0008034A1F008958091CE1C87FDF2CF08950B
:10370000803421F78091FB069091FC060597F1F635
:103710008091411E81608093411ED8CF0F94DA7250
:103720008091570590915805A0915905B0915A057F
:10373000E091AF06F091B00680819091AE068923AA
:10374000C9F28091FB069091FC0688309105D9F072
:103750008091411E8E7F8093411E8091F11E8F5F6C
:103760008093F11E08958091FB069091FC060797C7
:1037700009F0ACCFCDCF8091FB069091FC06089765
:1037800009F0A4CFC5CF9093FC068093FB06089563
:103790008091781E82319CF086E090E090939605AF
:1037A0008093950581E090E0909394058093930534
:1037B00084E090E09093920580939105089587E0CE
:1037C00090E0909396058093950582E090E0909329
:1037D00094058093930585E090E090939205809303
:1037E00091050895CF92DF92EF92FF92CF93DF93EE
:1037F000F894C091FB06D091FC06C090B70CD09015
:10380000B80CE090B90CF090BA0C0F94DA72609397
:103810008D0570938E0580938F0590939005789415
:10382000C330D1050CF049C0809103079091040783
:103830002197C89FB001C99F700DD89F700D1124AA
:10384000E091C81CF091C91CBA96E60FF71F2091B1
:103850008D0530918E0540918F05509190052C1962
:103860003D094E095F092093890530938A054093ED
:103870008B0550938C05A0918705B09188050F9416
:10388000ABA3DC01CB01905CAF4FBF4F9D01990F03
:10389000221F331FA12DAA1FB12DC9018E0F9F1FFB
:1038A000803D22E092071CF1805D9240DF91CF9134
:1038B000FF90EF90DF90CF900895E0E7F0E0C33005
:1038C000D10509F4C4CF8091030790910407229792
:1038D000C89FB001C99F700DD89F700D1124E09151
:1038E000C81CF091C91CBA96E60FF71FB0CF97FF1E
:1038F000DDCF88599E4FDF91CF91FF90EF90DF9001
:10390000CF9008958091180B9091190B2091C81CAD
:103910003091C91C821B930B20910A0230910B023B
:1039200097FD77C028173907DCF12091400C2295CC
:103930002F702430E9F1253008F44BC0263009F40B
:103940004AC0283009F0A2C09C012B5531092A3504
:10395000310508F482C09C01255B31092A35310507
:1039600008F4A8C001978E30914008F0BCC081E0F7
:1039700090E0909396058093950582E090E0909377
:1039800094058093930583E090E090939205809353
:10399000910584E090E090937605809375050895F5
:1039A000821B930B2091400C22952F70243019F626
:1039B0000197843B910580F182E090E09093960519
:1039C0008093950581E090E0909394058093930512
:1039D0000895233071F59C012957310928373105A5
:1039E00048F10197803F910508F451C083E090E0D1
:1039F000909396058093950581E090E090939405CF
:103A00008093930582E090E09093920580939105D6
:103A10000895820F931F89CF81E090E090939605DF
:103A20008093950582E090E09093940580939305B0
:103A30000895089582E090E090939605809395050F
:103A400083E090E0909394058093930581E090E06B
:103A50009093920580939105089582E090E0909371
:103A600096058093950583E090E09093940580936C
:103A7000930584E090E0909392058093910581E016
:103A800090E090937605809375050895089581E000
:103A900090E0909396058093950582E090E0909356
:103AA00094058093930583E090E090939205809332
:103AB0009105089583E090E0909396058093950595
:103AC00084E090E0909394058093930581E090E0EA
:103AD000909392058093910582E090E09093760513
:103AE00080937505089584E090E090939605809307
:103AF000950581E090E0909394058093930582E092
:103B000090E0909392058093910583E090E09093EC
:103B100076058093750508958F929F92AF92BF921C
:103B2000CF92DF92EF92FF92CF93DF93F894C09100
:103B3000FB06D091FC06C090B70CD090B80CE0907A
:103B4000B90CF090BA0C0F94DA7260938D057093F3
:103B50008E0580938F05909390057894809103074C
:103B600090910407AE0141505109489FE001499FDF
:103B7000D00D589FD00D11248091C81C9091C91C64
:103B8000C80FD91F20918D0530918E0540918F056A
:103B9000509190052C193D094E095F092093890524
:103BA00030938A0540938B0550938C05F89480914F
:103BB000280B86FF43C0C090B70CD090B80CE090A3
:103BC000B90CF090BA0C8090F6069090F706A09091
:103BD000F806B090F906A0910307B0910407789415
:103BE0000F94ABA3A7019601281939094A095B096B
:103BF0000F94BEA3C9018C0F9D1F803D22E0920748
:103C00006CF0805D9240DF91CF91FF90EF90DF905C
:103C1000CF90BF90AF909F908F90089597FFF3CF74
:103C2000409112025091130220910A0230910B022E
:103C300024173507C4F0820F931FE5CF7894A09125
:103C40008705B09188050F94ABA3DC01CB01905C94
:103C5000AF4FBF4F9D01990F221F331FA12DAA1FE8
:103C6000B12DC901C8CF9A01820F931FCCCF362F37
:103C700060910307709104074091C81C5091C91CC2
:103C8000841B950B0F9435A3CB012091D71C230FD8
:103C90003327331F1816190634F42617370714F480
:103CA000821B930B0895820F931F0895CF938091E9
:103CB000D41C8C718C30D1F1C0E06C2F8091180B2A
:103CC0009091190B0E94371E90939605809395054D
:103CD0006C2F80912A0890912B080E94371E909398
:103CE0009405809393056C2F809128089091290862
:103CF0000E94371E90939205809391056C2F8091BE
:103D00002608909127080E94371E9093760580938D
:103D100075056C2F80911408909115080E94371E2C
:103D20009093680580936705CF9108958091CD1C8D
:103D3000C091D71C81FFC1CFBFCF8F929F92AF920E
:103D4000BF92FF920F931F93CF93DF93F894C0918C
:103D5000FB06D091FC068090B70C9090B80CA09018
:103D6000B90CB090BA0CF090B5060F94DA7260936B
:103D70008D0570938E0580938F05909390057894B0
:103D8000209719F4C091D71CD0E00091030710913F
:103D90000407E091C81CF091C91C20918D05309159
:103DA0008E0540918F0550919005281939094A09CF
:103DB0005B092093890530938A0540938B055093C6
:103DC0008C05A0918705B09188050F94ABA3705C1A
:103DD0008F4F9F4F9C01770F221F331F812D881F0C
:103DE000912DB9012197C09F9001C19F300DD09FA7
:103DF000300D11246E0F7F1FC901860F971FFF2002
:103E000021F02091CD1C21FF20C0803D22E09207AF
:103E100064F0805D9240DF91CF911F910F91FF90F0
:103E2000BF90AF909F908F90089597FFF4CF4091EF
:103E300012025091130220910A0230910B022417B2
:103E4000350734F0820F931FE6CF88599E4FDDCFA0
:103E50009A01820F931FDFCFCF92DF92EF92FF92F2
:103E6000CF93DF933FB7F89480918B0D90918C0D99
:103E7000A0918D0DB0918E0D26B5A89B05C02F3F4A
:103E800019F00196A11DB11D3FBFBA2FA92F982F80
:103E90008827820F911DA11DB11D880F991FAA1F90
:103EA000BB1F880F991FAA1FBB1F8093710590939A
:103EB0007205A0937305B09374058091710590917C
:103EC0007205A0917305B09174054091B30C5091A7
:103ED000B40C6091B50C7091B60C841B950BA60BBD
:103EE000B70B80937B0590937C05A0937D05B093E1
:103EF0007E0540917B0550917C0560917D05709118
:103F00007E058091EA069091EB06A091EC06B091B7
:103F1000ED06481759076A077B0708F464C08091CB
:103F2000710590917205A0917305B091740580930D
:103F3000B30C9093B40CA093B50CB093B60C8091D5
:103F40007B0590917C05A0917D05B0917E05B6958D
:103F5000A79597958795B695A795979587958093FB
:103F6000EA069093EB06A093EC06B093ED068091E1
:103F7000411E80FF53C04091B51E5091B61E609106
:103F8000B71E7091B81E8091D31C90E0B0E0A0E005
:103F900084179507A607B70708F040C08091D71C83
:103FA00090E02091FB063091FC068217930791F078
:103FB0004091B51E5091B61E6091B71E7091B81E0B
:103FC000433051056105710528F02091F11E2F5FE6
:103FD0002093F11E2091CE1C27FF58C09093FC0621
:103FE0008093FB0653C08091D50A9091D60AA09188
:103FF000D70AB091D80AB695A795979587958093DB
:10400000EA069093EB06A093EC06B093ED06DF91E1
:10401000CF91FF90EF90DF90CF9008950F94DA72D8
:104020006093B70C7093B80C8093B90C9093BA0C52
:104030000F94DA726B017C01C091D71C2C2F30E0F9
:1040400050E040E060E87DE88BE590E00F94BEA38F
:10405000C21AD30AE40AF50AC092F606D092F7060D
:10406000E092F806F092F906D0E0D093FC06C093F7
:10407000FB061092FD061092FE061092FF061092AB
:1040800000078091411E81608093411E81E08093F2
:10409000B506DF91CF91FF90EF90DF90CF9008951C
:1040A000262F60910307709104074091C81C50911E
:1040B000C91C841B950B0F9435A34091D71C4D3020
:1040C00010F06150710950E0822F90E09A01280FA2
:1040D000391F16161706C4F42617370794F02091D7
:1040E0000107309102072617370720F446175707B4
:1040F00008F0B901820F931F6817790708F4CB0104
:104100000895621B730BEBCF620F731FE8CFCF9341
:104110008091D41C84718430D1F1C0E06C2F8091E7
:10412000180B9091190B0E94502090939605809344
:1041300095056C2F80912A0890912B080E945020A1
:1041400090939405809393056C2F8091280890910B
:1041500029080E94502090939205809391056C2F1E
:1041600080912608909127080E9450209093760510
:10417000809375056C2F80911408909115080E940A
:1041800050209093680580936705CF9108958091A2
:10419000CD1C81FDC2CF8091400CC091D71C82FF05
:1041A000BDCFBBCFCF92DF92EF92FF92F8942091D8
:1041B000FB063091FC069091B506C090B70CD090EC
:1041C000B80CE090B90CF090BA0C789440910307C9
:1041D0005091040721503109249FF001259FF00DD3
:1041E000349FF00D11246091C81C7091C91CE60F1A
:1041F000F71F992321F08091CD1C81FF6CC09FB7E0
:10420000F89440918B0D50918C0D60918D0D7091B3
:104210008E0D86B5A89B06C08F3F21F04F5F5F4F84
:104220006F4F7F4F9FBF2227342F452F562F280FC8
:10423000311D411D511D220F331F441F551F220FD9
:10424000331F441F551F20938D0530938E054093D7
:104250008F05509390052C193D094E095F09209355
:10426000890530938A0540938B0550938C05A09166
:104270008705B09188050F94ABA3DC01CB01905C5E
:10428000AF4FBF4F9D01990F221F331FA12DAA1FB2
:10429000B12DC9018E0F9F1F803D22E092073CF097
:1042A000805D9240FF90EF90DF90CF90089597FF50
:1042B000F9CF409112025091130220910A023091DD
:1042C0000B022417350754F0820F931FFF90EF90D5
:1042D000DF90CF900895E859FE4F91CF9A01820F59
:1042E000931FF4CFCF92DF92EF92FF920F94DA7286
:1042F00060934F057093500580935105909352053C
:1043000080914F0590915005A0915105B0915205B3
:1043100040914B0550914C0560914D0570914E05B3
:10432000841B950BA60BB70B8093770590937805AC
:10433000A0937905B0937A0580914B0590914C0537
:10434000A0914D05B0914E05892B8A2B8B2BC1F482
:1043500010927705109278051092790510927A05DF
:1043600080914F0590915005A0915105B091520553
:1043700080934B0590934C05A0934D05B0934E054B
:1043800040917705509178056091790570917A0593
:104390008091470590914805A0914905B0914A0543
:1043A000481759076A077B0708F474C080914505D0
:1043B000909146050196909346058093450580911E
:1043C000770590917805A0917905B0917A05B69519
:1043D000A79597958795B695A79597958795809377
:1043E000470590934805A0934905B0934A05E0918D
:1043F0000E02F0910F021995893621E0920734F0F0
:1044000088569140893621E09207D4F72091C81C44
:104410003091C91C821B930B2091461F23702230C0
:1044200031F42091411D3091421D821B930B40912C
:10443000441D9C01220F331F50E0A0E0B1E0A41BFB
:10444000B50B0F941AA46B017C01A091091FB091C8
:104450000A1F9A010F9422A4C60ED71EE81EF91E49
:10446000CD2CDE2CEF2CFF24E7FCFA94D0920A1F0F
:10447000C092091F80914F0590915005A091510560
:10448000B091520580934B0590934C05A0934D0538
:10449000B0934E05FF90EF90DF90CF900895CF92AC
:1044A000DF92EF92FF920F94DA726093710570932E
:1044B00072058093730590937405809171059091B6
:1044C0007205A0917305B09174054091B30C5091A1
:1044D000B40C6091B50C7091B60C841B950BA60BB7
:1044E000B70B80937B0590937C05A0937D05B093DB
:1044F0007E058091B30C9091B40CA091B50CB09155
:10450000B60C892B8A2B8B2BC1F410927B05109251
:104510007C0510927D0510927E0580917105909129
:104520007205A0917305B09174058093B30C9093BC
:10453000B40CA093B50CB093B60C40917B05509190
:104540007C0560917D0570917E058091EA069091D1
:10455000EB06A091EC06B091ED06481759076A07E3
:104560007B0708F445C08091D01C8F77813009F417
:1045700044C008F423C1823009F4F2C0843041F50C
:104580008091B00C9091B10C01969093B10C8093F6
:10459000B00C8091B00C9091B10C029709F46AC1F3
:1045A00080917B0590917C05A0917D05B0917E0561
:1045B000B695A79597958795B695A795979587955D
:1045C0008093EA069093EB06A093EC06B093ED0679
:1045D0008091710590917205A0917305B091740559
:1045E0008093B30C9093B40CA093B50CB093B60C1D
:1045F000FF90EF90DF90CF9008958091B30C909151
:10460000B40CA091B50CB091B60C409163055091DB
:1046100064056091650570916605841B950BA60B7A
:10462000B70BAC01BD01440F551F661F771F840FE8
:10463000951FA61FB71FB695A79597958795809349
:104640006D0590936E05A0936F05B09370058091F2
:10465000B30C9091B40CA091B50CB091B60C8093B2
:10466000630590936405A0936505B093660540913A
:104670007B0550917C0560917D0570917E05809150
:104680006D0590916E05A0916F05B091700548176A
:1046900059076A077B0738F48091B00C9091B10CF0
:1046A000049708F4C5C081E090E09093B10C80932A
:1046B000B00C8093B5061092EA061092EB061092A9
:1046C000EC061092ED068091401F85FF81CF80910E
:1046D000B506882309F47CCFE0910E02F0910F0219
:1046E0001995893621E0920734F088569140893631
:1046F00021E09207D4F72091C81C3091C91C821B7D
:10470000930B2091461F2370223031F42091031E19
:104710003091041E821B930B4091441D9C01220F7B
:10472000331F50E0A0E0B1E0A41BB50B0F941AA416
:104730006B017C01A091F61EB091F71E9A010F94B7
:1047400022A4C60ED71EE81EF91ECD2CDE2CEF2C9F
:10475000FF24E7FCFA94D092F71EC092F61E38CFE1
:1047600080917B0590917C05A0917D05B0917E059F
:10477000B695A795979587958093EA069093EB0653
:10478000A093EC06B093ED068091401F85FF20CFEB
:104790008091B506882309F41BCFE0910E02F091B9
:1047A0000F021995893621E092070CF4A4CF8856A0
:1047B0009140893621E09207D4F79DCF81E0809324
:1047C000B50680917B0590917C05A0917D05B09107
:1047D0007E05B695A795979587958093EA06909361
:1047E000EB06A093EC06B093ED068091B00C90918F
:1047F000B10C01969093B10C8093B00C8091401F46
:1048000085FFE6CE8091B506882309F4E1CEE091DC
:104810000E02F0910F021995893621E092070CF4EF
:104820006ACF88569140893621E09207D4F763CF4A
:1048300080917B0590917C05A0917D05B0917E05CE
:10484000B695A79597958795B695A79597958795CA
:104850008093EA069093EB06A093EC06B093ED06E6
:104860008091B00C9091B10C01969093B10C809313
:10487000B00CAECE81E08093B5068091401F85FFDD
:104880008FCE8091B506882309F48ACEE0910E027E
:10489000F0910F021995893621E0920734F088567D
:1048A0009140893621E09207D4F72091C81C3091BD
:1048B000C91C821B930B2091461F2370223031F4B8
:1048C0002091031E3091041E821B930B4091441DC6
:1048D0009C01220F331F50E0A0E0B1E0A41BB50BF8
:1048E0000F941AA46B017C01A091F61EB091F71EE3
:1048F0009A010F9422A4C60ED71EE81EF91ECD2CD5
:10490000DE2CEF2CFF24E7FCFA94D092F71EC09225
:10491000F61E46CE0F931F932091921E26FD21C0B6
:104920002091F41E222301F141111BC0E0911A0CC9
:10493000F0911B0CEE0FFF1FEE0FFF1FE75BFC4F0C
:10494000608371838283938380911A0C90911B0CF6
:104950008E37910508F453C08091921E8064809335
:10496000921E1F910F9108958091F51E8823C9F31F
:10497000E0911A0CF0911B0CE653FD4F1082E09170
:10498000AF06F091B006A091AC06B091AD068430B0
:1049900009F446C090812091AE06922349F0E0913F
:1049A0001A0CF0911B0CE653FD4F9081916090839F
:1049B000E091A906F091AA06833009F496C08C9183
:1049C0009091AB06892349F0A0911A0CB0911B0C71
:1049D000A653BD4F8C9182608C9380819091A806E4
:1049E000892349F0E0911A0CF0911B0CE653FD4F1E
:1049F000808184608083442309F44BC041C080914E
:104A00001A0C90911B0C019690931B0C80931A0C1E
:104A10008091921E8F7B8093921E1F910F9108951B
:104A20008C919091AB06892349F0A0911A0CB0911A
:104A30001B0CA653BD4F8C9181608C93A091A9064D
:104A4000B091AA068C919091A806892349F0A09173
:104A50001A0CB0911B0CA653BD4F8C9182608C93A5
:104A600080819091AE06892349F0E0911A0CF09173
:104A70001B0CE653FD4F808184608083423049F4F3
:104A8000E0911A0CF0911B0CE653FD4F8081886079
:104A900080838091411E80FF09C0E0911A0CF09143
:104AA0001B0CE653FD4F8081806180838091B506A9
:104AB000E0911A0CF0911B0CE653FD4F882351F145
:104AC00080818062808300911A0C10911B0C0F94DE
:104AD000DA72000F111F000F111FF801E75BFC4F86
:104AE00060837183828393832FCF80819091A80606
:104AF000892349F0E0911A0CF0911B0CE653FD4F0D
:104B00008081826080838C919091AB06892309F427
:104B100072CF68CF80818F7D8083D5CF8091280B25
:104B20008F7D8093280B8091280B80628093280BC7
:104B30008091BE078330E1F0823081F0813029F42A
:104B4000E0910602F091070219958091F51E8823E5
:104B500021F08091280B85FD15C00895E091A906EC
:104B6000F091AA0680819091A806892349F3EDCFA0
:104B7000E091A906F091AA0680819091A806892368
:104B8000F9F6E3CF6091770570917805809179050A
:104B900090917A0542E00C948A248091280B8F7DB5
:104BA0008093280B8091280B80628093280B809142
:104BB000C0078330E1F0823081F0813029F4E09148
:104BC0000802F091090219958091F51E882321F0C1
:104BD0008091280B85FD15C00895E091AC06F091F9
:104BE000AD0680819091AB06892349F3EDCFE0912A
:104BF000AC06F091AD0680819091AB068923F9F661
:104C0000E3CF60917B0570917C0580917D0590914B
:104C10007E0541E00C948A248091280B8F7D80933F
:104C2000280B8091BC07833099F18230A1F081304C
:104C3000D9F4E0910402F091050219958091F41ED7
:104C4000882321F08091280B85FD17C08091F51EE7
:104C5000811113C00895E091AF06F091B0068081F4
:104C60009091AE06892329F38091F41E882371F375
:104C70008091280B85FFEACF089560917F057091A0
:104C80008005809181059091820540E00C948A24F2
:104C9000E091AF06F091B00680819091AE06892335
:104CA00041F6E2CF90E080E0089590E080E0089542
:104CB0000F931F93CF93DF939091921E96FF71C035
:104CC00024E030E03093840D2093830DC82FD0E092
:104CD000CF3708F058C0A091A606B091A7068E0164
:104CE000000F111F000F111F075B1C4FF80160819F
:104CF000718182819381692F772788279927ED9188
:104D0000FC9111970190F081E02DCD011995A091B2
:104D1000A606B091A706F801608171818281938116
:104D2000BC0188279927ED91FC9111970190F081A2
:104D3000E02DCD011995A091A606B091A706F80126
:104D40006081718182819381672F782F892F9927C4
:104D5000ED91FC9111970190F081E02DCD01199515
:104D6000A091A606B091A706F801608171818281A9
:104D70009381ED91FC9111970190F081E02DCD018F
:104D800019952196A5CF8091921E8F7B8093921EBC
:104D90001092840D1092830D10921B0C10921A0C1D
:104DA00014C0CCEFD1E08091A6069091A706DC015B
:104DB000ED91FC910190F081E02D60E01995219733
:104DC00091F71092840D1092830DDF91CF911F9176
:104DD0000F910895EF92FF920F931F93CF93DF935C
:104DE00040910002442321F0109200021092A91E6B
:104DF000E091411E5091931E4091931E2E2F2170E1
:104E000030E0319521953109252720783327242753
:104E10002093931E1092AF0D9B012155324F7901C3
:104E2000CFEADDE08C010F5A1D40CE15DF0541F0C1
:104E3000C8018C0F9D1F0E948B8C89832196F5CF12
:104E40008091941E877F8093941EDF91CF911F9154
:104E50000F91FF90EF900895CF93C82F8091A606F1
:104E60009091A706DC01ED91FC910480F581E02D85
:104E70001995892B99F38091A6069091A706DC01DC
:104E8000ED91FC910190F081E02D6C2FCF91199460
:104E9000CF93C82F892F0E942C278C2FCF910C9451
:104EA0002C278091A6069091A706DC01ED91FC913C
:104EB0000084F185E02D19951816190664F4809187
:104EC000A6069091A706DC01ED91FC910284F38582
:104ED000E02D1995E6CF08950F931F930F94FC6969
:104EE0000091A8021091A9022091AA023091AB0270
:104EF000601B710B820B930B21E06D3B72408105AF
:104F0000910508F420E0822F1F910F9108950F93CF
:104F10001F93CF93DF938C01EB018091A6069091B4
:104F2000A706DC01ED91FC910084F185E02D199537
:104F3000892B99F08091A6069091A706DC01ED914E
:104F4000FC910284F385E02D19952197F801EC0F6F
:104F5000FD1F8083209709F704C00E946C278823D7
:104F6000E1F2DF91CF911F910F910895CF93DF93DD
:104F700000D01F92CDB7DEB764E070E0CE0101969D
:104F80000E9487270E946C27811105C069817A8160
:104F90008B819C8103C060E070E0CB010F900F908B
:104FA0000F900F90DF91CF910895CF93DF931F92D1
:104FB0001F92CDB7DEB762E070E0CE0101960E948D
:104FC00087270E946C27811103C089819A8102C0C2
:104FD00090E080E00F900F90DF91CF9108953FB760
:104FE000F89480918B0D90918C0DA0918D0DB091C6
:104FF0008E0D26B5A89B05C02F3F19F00196A11D67
:10500000B11D3FBFBA2FA92F982F8827820F911D5E
:10501000A11DB11D880F991FAA1FBB1F880F991FC3
:10502000AA1FBB1F8093830590938405A0938505D9
:10503000B09386058091830590918405A0918505A4
:10504000B09186054091B70C5091B80C6091B90CA5
:105050007091BA0C841B950BA60BB70B80937F0540
:1050600090938005A0938105B093820540917F05C0
:105070005091800560918105709182058091FD06B7
:105080009091FE06A091FF06B091000748175907BE
:105090006A077B0708F491C08091280B8062809397
:1050A000280B8091FB069091FC0601969093FC06DC
:1050B0008093FB068091FB069091FC06019709F412
:1050C0007DC08091FB069091FC06059709F476C09F
:1050D0008091411E80FF71C08091971E81FF13C097
:1050E0008091D41C87FF0FC08091FB069091FC0635
:1050F000019709F4B9C08091FB069091FC060397D3
:1051000011F40E9461F78091FB069091FC060197D3
:1051100009F493C08091FB069091FC06039709F473
:105120008CC08CE690E09093040780930307409135
:105130007F05509180056091810570918205DB01AA
:10514000CA01880F991FAA1FBB1F840F951FA61F96
:10515000B71FB695A79597958795B695A7959795F7
:105160008795B695A795979587958093FD0690931B
:10517000FE06A093FF06B09300078091B70C9091B4
:10518000B80CA091B90CB091BA0C8093F60690932C
:10519000F706A093F806B093F906809183059091E5
:1051A0008405A0918505B09186058093B70C9093F6
:1051B000B80CA093B90CB093BA0C089581E090E0BC
:1051C0009093FC068093FB068091F2069091F30683
:1051D000A091F406B091F5068093EE069093EF0649
:1051E000A093F006B093F106809183059091840519
:1051F000A0918505B09186058093F2069093F30601
:10520000A093F406B093F5068091411E81608093CF
:10521000411E8091B51E9091B61EA091B71EB0910F
:10522000B81E0196A11DB11D8093B51E9093B61EA8
:10523000A093B71EB093B81E4BCF88E490E0909334
:1052400004078093030780917F0590918005A091CA
:105250008105B09182058093FD069093FE06A09390
:10526000FF06B093000789CF0E9414F84CCFCF936C
:10527000C82F843690F463E973E18091A60690917B
:10528000A7060F94D276CA3040F461E973E18091A9
:10529000A6069091A7060F94D2764C2F50E070E0AE
:1052A00060E02AE08091A6069091A7060F94136E05
:1052B00065E973E18091A6069091A706CF910D94C0
:1052C000D2760F931F93CF93DF93EC018B018091E4
:1052D000A6069091A706C017D10781F0499150E02A
:1052E00070E060E02AE00F94136E6FE873E1809144
:1052F000A6069091A7060F94D276E9CFDF91CF91C1
:105300001F910F910D94FD740F931F93CF93DF9313
:10531000EC018B01C017D10741F069918091A6067D
:105320009091A7060F94D96CF5CFDF91CF911F9183
:105330000F910895CF93DF93EC0181E090E090937B
:10534000840D8093830DCE010E944827D093AF0235
:10535000C093AE02BE0190E080E00F94016B909389
:10536000AD028093AC02249621E030E0C817D90743
:1053700011F430E020E03093840D2093830DDF9111
:10538000CF910895CF92DF92EF92FF920F931F93E8
:10539000CF9380915C0D80739091D41C90FD1EC0C2
:1053A000803109F469C08032F1F48091031F8330A9
:1053B00009F429C108F4E7C0853009F4D9C008F41C
:1053C00037C1863081F48091640D28EC829FC00142
:1053D00011249093BE1E8093BD1E05C0803159F0EC
:1053E000803209F487C0CF911F910F91FF90EF9009
:1053F000DF90CF9008958091031F833009F4E8C0B7
:1054000008F498C0853009F4E0C008F4A1C0C09148
:10541000640D863041F7C090421ED090431EE0904C
:10542000561EF12CEE0CFF1C0CE615E12CE535E1C7
:105430004CE155E168E085E195E10F94122AC89F9F
:10544000900111243695279536952795ABE7B4E161
:105450000F94E0A396958795880F991F880F991F41
:10546000811522E0920708F458C08FEF91E09093E5
:10547000BA1E8093B91EB7CF8091031F833009F401
:10548000AAC008F44FC0853009F49CC008F463C07A
:10549000C091640D863009F0A6CFC090421ED09016
:1054A000431EE090561EF12CEE0CFF1C0CE615E19D
:1054B0002CE535E14CE155E168E085E195E10F949B
:1054C000122AC89FC0011124880F991F880F991FA5
:1054D000813127E2920710F080E197E29093BE1E9F
:1054E0008093BD1ECF911F910F91FF90EF90DF90A1
:1054F000CF9008958091031F833009F46FC008F4A2
:1055000052C0853059F108F49EC0863009F06BCF47
:105510008091640D90E0880F991F9093BA1E80933C
:10552000B91E61CF813089F0C091600D823009F4DD
:10553000B4CF59CF813031F0C091600D823009F481
:105540006ACF51CFC0915F0D66CFC0915F0DA5CFDF
:10555000C091620D60CFC091620D9FCF8091630DAD
:1055600090E0880F991F9093BA1E8093B91E3BCF8D
:105570008091630D28EC829FC00111249093BE1E80
:105580008093BD1E30CF813099F1823009F02BCF4E
:105590008091600D28EC829FC00111249093BE1E63
:1055A0008093BD1E20CF8130C9F1823009F01BCF1E
:1055B0008091600D90E0880F991F9093BA1E8093A0
:1055C000B91E11CFC091630D68CFC091630D23CF79
:1055D000C091610D20CFC091610D5FCF8091610DB1
:1055E00090E0880F991F9093BA1E8093B91EFBCE4E
:1055F00080915F0D28EC829FC00111249093BE1E04
:105600008093BD1EF0CE8091610D28EC829FC00179
:1056100011249093BE1E8093BD1EE5CE80915F0D38
:1056200090E0880F991F9093BA1E8093B91EDBCE2D
:105630008091620D28EC829FC00111249093BE1EC0
:105640008093BD1ED0CE8091620D90E0880F991F8F
:105650009093BA1E8093B91EC6CE9C012150324051
:10566000283141E03407C0F12F5F3E4F2230310531
:1056700098F1843023E0920709F4F1C3A8F58D3046
:1056800022E0920709F4F3C308F05BC0853022E002
:10569000920709F4D7C308F4EEC0893022E09207DC
:1056A00009F4BFC308F44DC18B3022E0920709F41E
:1056B0000CC208F43DC28091BB1E81FF05C08091E1
:1056C00050088860809350088091500883FDD1C0B5
:1056D0000F94390681E008952091421E3091431EB7
:1056E000232B39F280E00895833143E0940709F4D5
:1056F00080C308F047C08B3043E0940709F498C298
:1057000008F4E5C08F3043E0940709F480C208F440
:105710002CC1813143E0940709F4FDC108F471C341
:105720008091BB1E81FF05C080914F0880628093ED
:105730004F0880914F0885FD9CC00F94F90981E0C6
:105740000895843122E0920709F4AAC308F4A9C09D
:10575000883122E0920709F492C308F41AC182301A
:1057600023E0920709F4F8C208F0E5C281309340C3
:1057700009F0B8CF8091BB1E81FF7BC00E9468F802
:1057800081E00895823042E39407F0F4811522E32A
:10579000920708F06EC0863143E0940709F48DC18A
:1057A00008F40BC1873143E0940709F05CC1809194
:1057B000BB1E81FF5EC00F94AD0880914F088F77AC
:1057C00080934F0881E00895833049E9940709F4F4
:1057D000D0C108F092C0813049E9940709F46CC245
:1057E00008F051C28115994909F07CCF8091820C53
:1057F0008370813009F493C3F89480918F0A87FDF8
:105800008C5F18160CF0A7C3082E000C990BFC0136
:10581000EE0FFF1FEE0FFF1FE158F54F2081318182
:1058200042815381880F991F880F991FFC01E55809
:10583000F54F80819181A281B381281B390B4A0BDE
:105840005B0B7894211531054105510591F060E01D
:1058500077E883E993E00F94BEA33093840C209300
:10586000830C81E00F94DD3B8091941E88608093CF
:10587000941E81E00895813022E0920709F435C238
:1058800008F4E1C0833022E0920709F443C208F42F
:1058900034C28091BB1E81FFECCF0F94C20781E020
:1058A0000895803122E0920709F470C208F497C08D
:1058B000823122E0920709F4D5C108F4C6C1809173
:1058C000BB1E81FFD6CF0F94870B81E008958730F0
:1058D00043E0940709F49DC208F49BC0893043E07B
:1058E000940709F468C208F459C28091BB1E81FF75
:1058F000C0CF0E944FF681E00895853029E99207D4
:1059000009F4F4C208F4D9C28630994909F0EACE04
:105910002091001F3091011F2115310509F4A9CFF5
:10592000A0E1B7E20F94E0A32091421E3091431E04
:1059300050E040E00F94BEA33093910C2093900C64
:1059400090CF873022E0920709F4DDC008F4CAC086
:105950008091BB1E81FF8DCF0F94D6068091500899
:105960008B7F8093500881E008958D3043E0940749
:1059700009F445C108F432C18091BB1E81FF79CF83
:105980000E9448F580914F088F7E80934F0881E0F8
:105990000895863122E0920709F4E3C008F4D0C0EC
:1059A0008091BB1E81FF65CF0F94AC0A8091500897
:1059B0008F778093500881E00895843143E0940705
:1059C00009F066C08091BB1E81FF53CF0F9446093A
:1059D00080914F088F7B80934F0881E008958E302F
:1059E00022E0920709F4F8C18F30924009F07ACE94
:1059F0008091BB1E81FF05C080915008806180931B
:105A000050088091500884FD34CF0F94630C81E0DE
:105A10000895853043E0940709F4ABC18630934084
:105A200009F060CE8091BB1E81FF05C080914F08B8
:105A3000826080934F0880914F0881FD1ACF0E94A9
:105A400061F781E00895811521E0920709F4AAC069
:105A50008130914009F046CE8091BB1E82608093D8
:105A6000BB1E81E008958831934009F03BCE8091C0
:105A7000BB1E81FF05C080914F08806880934F084E
:105A800080914F0887FDF5CE0F94AD0881E0089511
:105A90008531934009F026CE8091BB1E81FF05C061
:105AA00080914F08806480934F0880914F0886FD55
:105AB000E0CE0F94460981E008958091BB1E81FFDE
:105AC000D8CE0F94F40881E008958091BB1E81FF29
:105AD000D0CE0F94390680915008877F809350086C
